{
  "contractName": "CounterfactualApp",
  "abi": [
    {
      "constant": true,
      "inputs": [
        {
          "name": "",
          "type": "bytes"
        }
      ],
      "name": "isStateTerminal",
      "outputs": [
        {
          "name": "",
          "type": "bool"
        }
      ],
      "payable": false,
      "stateMutability": "pure",
      "type": "function"
    },
    {
      "constant": true,
      "inputs": [
        {
          "name": "",
          "type": "bytes"
        },
        {
          "name": "",
          "type": "address[]"
        }
      ],
      "name": "getTurnTaker",
      "outputs": [
        {
          "name": "",
          "type": "address"
        }
      ],
      "payable": false,
      "stateMutability": "pure",
      "type": "function"
    },
    {
      "constant": true,
      "inputs": [
        {
          "name": "",
          "type": "bytes"
        },
        {
          "name": "",
          "type": "bytes"
        }
      ],
      "name": "applyAction",
      "outputs": [
        {
          "name": "",
          "type": "bytes"
        }
      ],
      "payable": false,
      "stateMutability": "pure",
      "type": "function"
    },
    {
      "constant": true,
      "inputs": [
        {
          "name": "",
          "type": "bytes"
        }
      ],
      "name": "computeOutcome",
      "outputs": [
        {
          "name": "",
          "type": "bytes"
        }
      ],
      "payable": false,
      "stateMutability": "pure",
      "type": "function"
    }
  ],
  "bytecode": "0x608060405234801561001057600080fd5b5061079e806100206000396000f3fe608060405234801561001057600080fd5b5060043610610069576000357c01000000000000000000000000000000000000000000000000000000009004806351c2e5411461006e57806359e537c11461009e57806367c40cc4146100ce578063ce963afd146100fe575b600080fd5b61008860048036036100839190810190610370565b61012e565b604051610095919061060a565b60405180910390f35b6100b860048036036100b391908101906102b6565b61016b565b6040516100c591906105ef565b60405180910390f35b6100e860048036036100e391908101906102b6565b6101a8565b6040516100f5919061060a565b60405180910390f35b610118600480360361011391908101906102fb565b6101e5565b60405161012591906105d4565b60405180910390f35b60606040517f08c379a00000000000000000000000000000000000000000000000000000000081526004016101629061068c565b60405180910390fd5b60006040517f08c379a000000000000000000000000000000000000000000000000000000000815260040161019f9061066c565b60405180910390fd5b60606040517f08c379a00000000000000000000000000000000000000000000000000000000081526004016101dc9061064c565b60405180910390fd5b60006040517f08c379a00000000000000000000000000000000000000000000000000000000081526004016102199061062c565b60405180910390fd5b60008083601f84011261023457600080fd5b8235905067ffffffffffffffff81111561024d57600080fd5b60208301915083602082028301111561026557600080fd5b9250929050565b60008083601f84011261027e57600080fd5b8235905067ffffffffffffffff81111561029757600080fd5b6020830191508360018202830111156102af57600080fd5b9250929050565b600080602083850312156102c957600080fd5b600083013567ffffffffffffffff8111156102e357600080fd5b6102ef8582860161026c565b92509250509250929050565b6000806000806040858703121561031157600080fd5b600085013567ffffffffffffffff81111561032b57600080fd5b6103378782880161026c565b9450945050602085013567ffffffffffffffff81111561035657600080fd5b61036287828801610222565b925092505092959194509250565b6000806000806040858703121561038657600080fd5b600085013567ffffffffffffffff8111156103a057600080fd5b6103ac8782880161026c565b9450945050602085013567ffffffffffffffff8111156103cb57600080fd5b6103d78782880161026c565b925092505092959194509250565b6103ee816106d9565b82525050565b6103fd816106eb565b82525050565b600061040e826106ac565b61041881856106b7565b9350610428818560208601610717565b6104318161074a565b840191505092915050565b6000610449603a836106c8565b91507f546865206765745475726e54616b6572206d6574686f6420686173206e6f206960008301527f6d706c656d656e746174696f6e20666f722074686973204170700000000000006020830152604082019050919050565b60006104af603c836106c8565b91507f54686520636f6d707574654f7574636f6d65206d6574686f6420686173206e6f60008301527f20696d706c656d656e746174696f6e20666f72207468697320417070000000006020830152604082019050919050565b6000610515603d836106c8565b91507f54686520697353746174655465726d696e616c206d6574686f6420686173206e60008301527f6f20696d706c656d656e746174696f6e20666f722074686973204170700000006020830152604082019050919050565b600061057b6039836106c8565b91507f546865206170706c79416374696f6e206d6574686f6420686173206e6f20696d60008301527f706c656d656e746174696f6e20666f72207468697320417070000000000000006020830152604082019050919050565b60006020820190506105e960008301846103e5565b92915050565b600060208201905061060460008301846103f4565b92915050565b600060208201905081810360008301526106248184610403565b905092915050565b600060208201905081810360008301526106458161043c565b9050919050565b60006020820190508181036000830152610665816104a2565b9050919050565b6000602082019050818103600083015261068581610508565b9050919050565b600060208201905081810360008301526106a58161056e565b9050919050565b600081519050919050565b600082825260208201905092915050565b600082825260208201905092915050565b60006106e4826106f7565b9050919050565b60008115159050919050565b600073ffffffffffffffffffffffffffffffffffffffff82169050919050565b60005b8381101561073557808201518184015260208101905061071a565b83811115610744576000848401525b50505050565b6000601f19601f830116905091905056fea365627a7a72305820210d7524aa6f9ffc75d1e2a647787e7708122d39a4b3a466d1fdfefdf5db53566c6578706572696d656e74616cf564736f6c634300050a0040",
  "source": "pragma solidity 0.5.10;\npragma experimental \"ABIEncoderV2\";\n\n\ncontract CounterfactualApp {\n\n  function isStateTerminal(bytes calldata)\n    external\n    pure\n    returns (bool)\n  {\n    revert(\"The isStateTerminal method has no implementation for this App\");\n  }\n\n  function getTurnTaker(bytes calldata, address[] calldata)\n    external\n    pure\n    returns (address)\n  {\n    revert(\"The getTurnTaker method has no implementation for this App\");\n  }\n\n  function applyAction(bytes calldata, bytes calldata)\n    external\n    pure\n    returns (bytes memory)\n  {\n    revert(\"The applyAction method has no implementation for this App\");\n  }\n\n  function computeOutcome(bytes calldata)\n    external\n    pure\n    returns (bytes memory)\n  {\n    revert(\"The computeOutcome method has no implementation for this App\");\n  }\n\n}\n",
  "sourcePath": "@counterfactual/contracts/contracts/interfaces/CounterfactualApp.sol",
  "compiler": {
    "name": "solc",
    "version": "0.5.10+commit.5a6ea5b1.Emscripten.clang"
  },
  "schemaVersion": "3.0.0",
  "updatedAt": "2019-07-18T10:40:23.179Z",
  "devdoc": {
    "methods": {}
  },
  "userdoc": {
    "methods": {}
  }
}