{
  "contractName": "UnidirectionalTransferApp",
  "abi": [
    {
      "constant": true,
      "inputs": [
        {
          "name": "encodedState",
          "type": "bytes"
        },
        {
          "name": "",
          "type": "address[]"
        }
      ],
      "name": "getTurnTaker",
      "outputs": [
        {
          "name": "",
          "type": "address"
        }
      ],
      "payable": false,
      "stateMutability": "pure",
      "type": "function"
    },
    {
      "constant": true,
      "inputs": [
        {
          "name": "encodedState",
          "type": "bytes"
        }
      ],
      "name": "computeOutcome",
      "outputs": [
        {
          "name": "",
          "type": "bytes"
        }
      ],
      "payable": false,
      "stateMutability": "pure",
      "type": "function"
    },
    {
      "constant": true,
      "inputs": [
        {
          "name": "encodedState",
          "type": "bytes"
        },
        {
          "name": "encodedAction",
          "type": "bytes"
        }
      ],
      "name": "applyAction",
      "outputs": [
        {
          "name": "",
          "type": "bytes"
        }
      ],
      "payable": false,
      "stateMutability": "pure",
      "type": "function"
    },
    {
      "constant": true,
      "inputs": [
        {
          "name": "encodedState",
          "type": "bytes"
        }
      ],
      "name": "isStateTerminal",
      "outputs": [
        {
          "name": "",
          "type": "bool"
        }
      ],
      "payable": false,
      "stateMutability": "pure",
      "type": "function"
    }
  ],
  "bytecode": "0x608060405234801561001057600080fd5b50610cf0806100206000396000f3fe608060405234801561001057600080fd5b5060043610610069576000357c01000000000000000000000000000000000000000000000000000000009004806351c2e5411461006e57806359e537c11461009e57806367c40cc4146100ce578063ce963afd146100fe575b600080fd5b61008860048036036100839190810190610711565b61012e565b6040516100959190610a8c565b60405180910390f35b6100b860048036036100b39190810190610657565b6101ac565b6040516100c59190610a71565b60405180910390f35b6100e860048036036100e39190810190610657565b6101d5565b6040516100f59190610a8c565b60405180910390f35b6101186004803603610113919081019061069c565b61021d565b6040516101259190610a34565b60405180910390f35b60606101386103cd565b85856101479190810190610786565b90506101516103e9565b848461016091908101906107c7565b905061016a6103cd565b61017d8383600001518460200151610260565b9050806040516020016101909190610aee565b6040516020818303038152906040529350505050949350505050565b60006101b66103cd565b83836101c59190810190610786565b9050806020015191505092915050565b60606101df6103cd565b83836101ee9190810190610786565b905080600001516040516020016102059190610a4f565b60405160208183030381529060405291505092915050565b60006102276103cd565b85856102369190810190610786565b9050806000015160008151811061024957fe5b602002602001015160000151915050949350505050565b6102686103cd565b61029783856000015160008151811061027d57fe5b60200260200101516020015161032290919063ffffffff16565b84600001516000815181106102a857fe5b602002602001015160200181815250506102e78385600001516001815181106102cd57fe5b60200260200101516020015161037890919063ffffffff16565b84600001516001815181106102f857fe5b60200260200101516020018181525050818460200190151590811515815250508390509392505050565b600082821115610367576040517f08c379a000000000000000000000000000000000000000000000000000000000815260040161035e90610ace565b60405180910390fd5b600082840390508091505092915050565b6000808284019050838110156103c3576040517f08c379a00000000000000000000000000000000000000000000000000000000081526004016103ba90610aae565b60405180910390fd5b8091505092915050565b6040518060400160405280606081526020016000151581525090565b6040518060400160405280600081526020016000151581525090565b60008135905061041481610c68565b92915050565b60008083601f84011261042c57600080fd5b8235905067ffffffffffffffff81111561044557600080fd5b60208301915083602082028301111561045d57600080fd5b9250929050565b600082601f83011261047557600080fd5b813561048861048382610b3d565b610b10565b915081818352602084019350602081019050838560408402820111156104ad57600080fd5b60005b838110156104dd57816104c388826105aa565b8452602084019350604083019250506001810190506104b0565b5050505092915050565b6000813590506104f681610c7f565b92915050565b60008083601f84011261050e57600080fd5b8235905067ffffffffffffffff81111561052757600080fd5b60208301915083600182028301111561053f57600080fd5b9250929050565b60006040828403121561055857600080fd5b6105626040610b10565b9050600082013567ffffffffffffffff81111561057e57600080fd5b61058a84828501610464565b600083015250602061059e848285016104e7565b60208301525092915050565b6000604082840312156105bc57600080fd5b6105c66040610b10565b905060006105d684828501610405565b60008301525060206105ea84828501610642565b60208301525092915050565b60006040828403121561060857600080fd5b6106126040610b10565b9050600061062284828501610642565b6000830152506020610636848285016104e7565b60208301525092915050565b60008135905061065181610c96565b92915050565b6000806020838503121561066a57600080fd5b600083013567ffffffffffffffff81111561068457600080fd5b610690858286016104fc565b92509250509250929050565b600080600080604085870312156106b257600080fd5b600085013567ffffffffffffffff8111156106cc57600080fd5b6106d8878288016104fc565b9450945050602085013567ffffffffffffffff8111156106f757600080fd5b6107038782880161041a565b925092505092959194509250565b6000806000806040858703121561072757600080fd5b600085013567ffffffffffffffff81111561074157600080fd5b61074d878288016104fc565b9450945050602085013567ffffffffffffffff81111561076c57600080fd5b610778878288016104fc565b925092505092959194509250565b60006020828403121561079857600080fd5b600082013567ffffffffffffffff8111156107b257600080fd5b6107be84828501610546565b91505092915050565b6000604082840312156107d957600080fd5b60006107e7848285016105f6565b91505092915050565b60006107fc83836109f6565b60408301905092915050565b61081181610bdc565b82525050565b61082081610bdc565b82525050565b600061083182610b75565b61083b8185610b98565b935061084683610b65565b8060005b8381101561087757815161085e88826107f0565b975061086983610b8b565b92505060018101905061084a565b5085935050505092915050565b600061088f82610b75565b6108998185610ba9565b93506108a483610b65565b8060005b838110156108d55781516108bc88826107f0565b97506108c783610b8b565b9250506001810190506108a8565b5085935050505092915050565b6108eb81610bee565b82525050565b6108fa81610bee565b82525050565b600061090b82610b80565b6109158185610bba565b9350610925818560208601610c24565b61092e81610c57565b840191505092915050565b6000610946601b83610bcb565b91507f536166654d6174683a206164646974696f6e206f766572666c6f7700000000006000830152602082019050919050565b6000610986601e83610bcb565b91507f536166654d6174683a207375627472616374696f6e206f766572666c6f7700006000830152602082019050919050565b600060408301600083015184820360008601526109d68282610826565b91505060208301516109eb60208601826108e2565b508091505092915050565b604082016000820151610a0c6000850182610808565b506020820151610a1f6020850182610a25565b50505050565b610a2e81610c1a565b82525050565b6000602082019050610a496000830184610817565b92915050565b60006020820190508181036000830152610a698184610884565b905092915050565b6000602082019050610a8660008301846108f1565b92915050565b60006020820190508181036000830152610aa68184610900565b905092915050565b60006020820190508181036000830152610ac781610939565b9050919050565b60006020820190508181036000830152610ae781610979565b9050919050565b60006020820190508181036000830152610b0881846109b9565b905092915050565b6000604051905081810181811067ffffffffffffffff82111715610b3357600080fd5b8060405250919050565b600067ffffffffffffffff821115610b5457600080fd5b602082029050602081019050919050565b6000819050602082019050919050565b600081519050919050565b600081519050919050565b6000602082019050919050565b600082825260208201905092915050565b600082825260208201905092915050565b600082825260208201905092915050565b600082825260208201905092915050565b6000610be782610bfa565b9050919050565b60008115159050919050565b600073ffffffffffffffffffffffffffffffffffffffff82169050919050565b6000819050919050565b60005b83811015610c42578082015181840152602081019050610c27565b83811115610c51576000848401525b50505050565b6000601f19601f8301169050919050565b610c7181610bdc565b8114610c7c57600080fd5b50565b610c8881610bee565b8114610c9357600080fd5b50565b610c9f81610c1a565b8114610caa57600080fd5b5056fea365627a7a7230582094e52c657e96087204b5544a3e567792edbfaba122910f67a1a75ba96b9e7df06c6578706572696d656e74616cf564736f6c634300050a0040",
  "source": "pragma solidity 0.5.10;\npragma experimental \"ABIEncoderV2\";\n\nimport \"openzeppelin-solidity/contracts/math/SafeMath.sol\";\n\nimport \"@counterfactual/contracts/contracts/interfaces/CounterfactualApp.sol\";\nimport \"@counterfactual/contracts/contracts/libs/LibOutcome.sol\";\n\n\n/// @title Unidirectional Transfer App\n/// @notice This contract allows unidirectional transfers using the\n///         takeAction paradigm.\ncontract UnidirectionalTransferApp is CounterfactualApp {\n\n  using SafeMath for uint256;\n\n  struct AppState {\n    LibOutcome.CoinTransfer[] transfers; // [sender, receiver]\n    bool finalized;\n  }\n\n  struct TransferAction {\n    uint256 transferAmount;\n    bool finalize;\n  }\n\n  /// @dev getTurnTaker always returns sender's address to enforce unidirectionality.\n  function getTurnTaker(\n    bytes calldata encodedState, address[] calldata /* signingKeys */\n  )\n    external\n    pure\n    returns (address)\n  {\n    AppState memory state = abi.decode(encodedState, (AppState));\n    return state.transfers[0].to;\n  }\n\n  function computeOutcome(bytes calldata encodedState)\n    external\n    pure\n    returns (bytes memory)\n  {\n    AppState memory state = abi.decode(encodedState, (AppState));\n    return abi.encode(state.transfers);\n  }\n\n  function applyAction(\n    bytes calldata encodedState, bytes calldata encodedAction\n  )\n    external\n    pure\n    returns (bytes memory)\n  {\n    AppState memory state = abi.decode(encodedState, (AppState));\n    TransferAction memory action = abi.decode(encodedAction, (TransferAction));\n\n    // apply transition based on action\n    AppState memory postState = applyTransfer(\n      state,\n      action.transferAmount,\n      action.finalize\n    );\n\n    return abi.encode(postState);\n  }\n\n  function isStateTerminal(bytes calldata encodedState)\n    external\n    pure\n    returns (bool)\n  {\n    AppState memory appState = abi.decode(encodedState, (AppState));\n    return appState.finalized;\n  }\n\n  function applyTransfer(\n    AppState memory state,\n    uint256 transferAmount,\n    bool finalize\n  )\n    internal\n    pure\n    returns (AppState memory)\n  {\n    // subtract transfer amount from sender balance\n    // SafeMath will throw if below zero\n    state.transfers[0].amount = state.transfers[0].amount.sub(transferAmount);\n    // add transfer amount to receiver balance\n    state.transfers[1].amount = state.transfers[1].amount.add(transferAmount);\n    state.finalized = finalize;\n\n    return state;\n  }\n\n}\n",
  "sourcePath": "/Users/rahul/Desktop/connext/connext/indra-v2/modules/contracts/contracts/UnidirectionalTransferApp.sol",
  "compiler": {
    "name": "solc",
    "version": "0.5.10+commit.5a6ea5b1.Emscripten.clang"
  },
  "schemaVersion": "3.0.0",
  "updatedAt": "2019-07-18T10:40:23.178Z",
  "devdoc": {
    "methods": {
      "getTurnTaker(bytes,address[])": {
        "details": "getTurnTaker always returns sender's address to enforce unidirectionality."
      }
    },
    "title": "Unidirectional Transfer App"
  },
  "userdoc": {
    "methods": {},
    "notice": "This contract allows unidirectional transfers using the         takeAction paradigm."
  }
}