{
  "contractName": "HumanStandardToken",
  "abi": [
    {
      "constant": true,
      "inputs": [],
      "name": "name",
      "outputs": [
        {
          "name": "",
          "type": "string"
        }
      ],
      "payable": false,
      "stateMutability": "view",
      "type": "function"
    },
    {
      "constant": false,
      "inputs": [
        {
          "name": "_spender",
          "type": "address"
        },
        {
          "name": "_value",
          "type": "uint256"
        }
      ],
      "name": "approve",
      "outputs": [
        {
          "name": "success",
          "type": "bool"
        }
      ],
      "payable": false,
      "stateMutability": "nonpayable",
      "type": "function"
    },
    {
      "constant": true,
      "inputs": [],
      "name": "totalSupply",
      "outputs": [
        {
          "name": "",
          "type": "uint256"
        }
      ],
      "payable": false,
      "stateMutability": "view",
      "type": "function"
    },
    {
      "constant": false,
      "inputs": [
        {
          "name": "_from",
          "type": "address"
        },
        {
          "name": "_to",
          "type": "address"
        },
        {
          "name": "_value",
          "type": "uint256"
        }
      ],
      "name": "transferFrom",
      "outputs": [
        {
          "name": "success",
          "type": "bool"
        }
      ],
      "payable": false,
      "stateMutability": "nonpayable",
      "type": "function"
    },
    {
      "constant": true,
      "inputs": [],
      "name": "decimals",
      "outputs": [
        {
          "name": "",
          "type": "uint8"
        }
      ],
      "payable": false,
      "stateMutability": "view",
      "type": "function"
    },
    {
      "constant": true,
      "inputs": [],
      "name": "version",
      "outputs": [
        {
          "name": "",
          "type": "string"
        }
      ],
      "payable": false,
      "stateMutability": "view",
      "type": "function"
    },
    {
      "constant": true,
      "inputs": [
        {
          "name": "_owner",
          "type": "address"
        }
      ],
      "name": "balanceOf",
      "outputs": [
        {
          "name": "balance",
          "type": "uint256"
        }
      ],
      "payable": false,
      "stateMutability": "view",
      "type": "function"
    },
    {
      "constant": true,
      "inputs": [],
      "name": "symbol",
      "outputs": [
        {
          "name": "",
          "type": "string"
        }
      ],
      "payable": false,
      "stateMutability": "view",
      "type": "function"
    },
    {
      "constant": false,
      "inputs": [
        {
          "name": "_to",
          "type": "address"
        },
        {
          "name": "_value",
          "type": "uint256"
        }
      ],
      "name": "transfer",
      "outputs": [
        {
          "name": "success",
          "type": "bool"
        }
      ],
      "payable": false,
      "stateMutability": "nonpayable",
      "type": "function"
    },
    {
      "constant": true,
      "inputs": [
        {
          "name": "_owner",
          "type": "address"
        },
        {
          "name": "_spender",
          "type": "address"
        }
      ],
      "name": "allowance",
      "outputs": [
        {
          "name": "remaining",
          "type": "uint256"
        }
      ],
      "payable": false,
      "stateMutability": "view",
      "type": "function"
    },
    {
      "inputs": [
        {
          "name": "_initialAmount",
          "type": "uint256"
        },
        {
          "name": "_tokenName",
          "type": "string"
        },
        {
          "name": "_decimalUnits",
          "type": "uint8"
        },
        {
          "name": "_tokenSymbol",
          "type": "string"
        }
      ],
      "payable": false,
      "stateMutability": "nonpayable",
      "type": "constructor"
    },
    {
      "payable": false,
      "stateMutability": "nonpayable",
      "type": "fallback"
    },
    {
      "anonymous": false,
      "inputs": [
        {
          "indexed": true,
          "name": "_from",
          "type": "address"
        },
        {
          "indexed": true,
          "name": "_to",
          "type": "address"
        },
        {
          "indexed": false,
          "name": "_value",
          "type": "uint256"
        }
      ],
      "name": "Transfer",
      "type": "event"
    },
    {
      "anonymous": false,
      "inputs": [
        {
          "indexed": true,
          "name": "_owner",
          "type": "address"
        },
        {
          "indexed": true,
          "name": "_spender",
          "type": "address"
        },
        {
          "indexed": false,
          "name": "_value",
          "type": "uint256"
        }
      ],
      "name": "Approval",
      "type": "event"
    },
    {
      "constant": false,
      "inputs": [
        {
          "name": "_spender",
          "type": "address"
        },
        {
          "name": "_value",
          "type": "uint256"
        },
        {
          "name": "_extraData",
          "type": "bytes"
        }
      ],
      "name": "approveAndCall",
      "outputs": [
        {
          "name": "success",
          "type": "bool"
        }
      ],
      "payable": false,
      "stateMutability": "nonpayable",
      "type": "function"
    }
  ],
  "bytecode": "0x60c0604052600460808190527f48302e310000000000000000000000000000000000000000000000000000000060a090815261003e91600691906100d0565b5034801561004b57600080fd5b506040516109783803806109788339810160409081528151602080840151838501516060860151336000908152600185529586208590559484905590850180519395909491939101916100a3916003918601906100d0565b506004805460ff191660ff841617905580516100c69060059060208401906100d0565b505050505061016b565b828054600181600116156101000203166002900490600052602060002090601f016020900481019282601f1061011157805160ff191683800117855561013e565b8280016001018555821561013e579182015b8281111561013e578251825591602001919060010190610123565b5061014a92915061014e565b5090565b61016891905b8082111561014a5760008155600101610154565b90565b6107fe8061017a6000396000f3006080604052600436106100955763ffffffff60e060020a60003504166306fdde0381146100a7578063095ea7b31461013157806318160ddd1461016957806323b872dd14610190578063313ce567146101ba57806354fd4d50146101e557806370a08231146101fa57806395d89b411461021b578063a9059cbb14610230578063cae9ca5114610254578063dd62ed3e146102bd575b3480156100a157600080fd5b50600080fd5b3480156100b357600080fd5b506100bc6102e4565b6040805160208082528351818301528351919283929083019185019080838360005b838110156100f65781810151838201526020016100de565b50505050905090810190601f1680156101235780820380516001836020036101000a031916815260200191505b509250505060405180910390f35b34801561013d57600080fd5b50610155600160a060020a0360043516602435610372565b604080519115158252519081900360200190f35b34801561017557600080fd5b5061017e6103c6565b60408051918252519081900360200190f35b34801561019c57600080fd5b50610155600160a060020a03600435811690602435166044356103cc565b3480156101c657600080fd5b506101cf610498565b6040805160ff9092168252519081900360200190f35b3480156101f157600080fd5b506100bc6104a1565b34801561020657600080fd5b5061017e600160a060020a03600435166104fc565b34801561022757600080fd5b506100bc610517565b34801561023c57600080fd5b50610155600160a060020a0360043516602435610572565b34801561026057600080fd5b50604080516020600460443581810135601f8101849004840285018401909552848452610155948235600160a060020a03169460248035953695946064949201919081908401838280828437509497506105ea9650505050505050565b3480156102c957600080fd5b5061017e600160a060020a0360043581169060243516610767565b6003805460408051602060026001851615610100026000190190941693909304601f8101849004840282018401909252818152929183018282801561036a5780601f1061033f5761010080835404028352916020019161036a565b820191906000526020600020905b81548152906001019060200180831161034d57829003601f168201915b505050505081565b336000818152600260209081526040808320600160a060020a038716808552908352818420869055815186815291519394909390926000805160206107b3833981519152928290030190a350600192915050565b60005481565b600160a060020a03831660009081526001602052604081205482118015906104175750600160a060020a03841660009081526002602090815260408083203384529091529020548211155b151561042257600080fd5b600160a060020a03808416600081815260016020908152604080832080548801905593881680835284832080548890039055600282528483203384528252918490208054879003905583518681529351929391926000805160206107938339815191529281900390910190a35060019392505050565b60045460ff1681565b6006805460408051602060026001851615610100026000190190941693909304601f8101849004840282018401909252818152929183018282801561036a5780601f1061033f5761010080835404028352916020019161036a565b600160a060020a031660009081526001602052604090205490565b6005805460408051602060026001851615610100026000190190941693909304601f8101849004840282018401909252818152929183018282801561036a5780601f1061033f5761010080835404028352916020019161036a565b3360009081526001602052604081205482111561058e57600080fd5b33600081815260016020908152604080832080548790039055600160a060020a0387168084529281902080548701905580518681529051929392600080516020610793833981519152929181900390910190a350600192915050565b336000818152600260209081526040808320600160a060020a038816808552908352818420879055815187815291519394909390926000805160206107b3833981519152928290030190a383600160a060020a031660405180807f72656365697665417070726f76616c28616464726573732c75696e743235362c8152602001609060020a6d616464726573732c62797465732902815250602e019050604051809103902060e060020a9004338530866040518563ffffffff1660e060020a0281526004018085600160a060020a0316600160a060020a0316815260200184815260200183600160a060020a0316600160a060020a03168152602001828051906020019080838360005b8381101561070c5781810151838201526020016106f4565b50505050905090810190601f1680156107395780820380516001836020036101000a031916815260200191505b509450505050506000604051808303816000875af192505050151561075d57600080fd5b5060019392505050565b600160a060020a039182166000908152600260209081526040808320939094168252919091522054905600ddf252ad1be2c89b69c2b068fc378daa952ba7f163c4a11628f55a4df523b3ef8c5be1e5ebec7d5bd14f71427d1e84f3dd0314c0f7b2291e5b200ac8c7c3b925a165627a7a72305820762d794abef7ce6fa259168c45ca01d416e205b500b063e19efd6085d17302980029",
  "source": "/*\nThis Token Contract implements the standard token functionality (https://github.com/ethereum/EIPs/issues/20) as well as the following OPTIONAL extras intended for use by humans.\n\nIn other words. This is intended for deployment in something like a Token Factory or Mist wallet, and then used by humans.\nImagine coins, currencies, shares, voting weight, etc.\nMachine-based, rapid creation of many tokens would not necessarily need these extra features or will be minted in other manners.\n\n1) Initial Finite Supply (upon creation one specifies how much is minted).\n2) In the absence of a token registry: Optional Decimal, Symbol & Name.\n3) Optional approveAndCall() functionality to notify a contract if an approval() has occurred.\n\n.*/\npragma solidity ^0.4.4;\n\nimport \"./StandardToken.sol\";\n\ncontract HumanStandardToken is StandardToken {\n\n    function () {\n        //if ether is sent to this address, send it back.\n        throw;\n    }\n\n    /* Public variables of the token */\n\n    /*\n    NOTE:\n    The following variables are OPTIONAL vanities. One does not have to include them.\n    They allow one to customise the token contract & in no way influences the core functionality.\n    Some wallets/interfaces might not even bother to look at this information.\n    */\n    string public name;                   //fancy name: eg Simon Bucks\n    uint8 public decimals;                //How many decimals to show. ie. There could 1000 base units with 3 decimals. Meaning 0.980 SBX = 980 base units. It's like comparing 1 wei to 1 ether.\n    string public symbol;                 //An identifier: eg SBX\n    string public version = 'H0.1';       //human 0.1 standard. Just an arbitrary versioning scheme.\n\n    function HumanStandardToken(\n        uint256 _initialAmount,\n        string _tokenName,\n        uint8 _decimalUnits,\n        string _tokenSymbol\n        ) {\n        balances[msg.sender] = _initialAmount;               // Give the creator all initial tokens\n        totalSupply = _initialAmount;                        // Update total supply\n        name = _tokenName;                                   // Set the name for display purposes\n        decimals = _decimalUnits;                            // Amount of decimals for display purposes\n        symbol = _tokenSymbol;                               // Set the symbol for display purposes\n    }\n\n    /* Approves and then calls the receiving contract */\n    function approveAndCall(address _spender, uint256 _value, bytes _extraData) returns (bool success) {\n        allowed[msg.sender][_spender] = _value;\n        Approval(msg.sender, _spender, _value);\n\n        //call the receiveApproval function on the contract you want to be notified. This crafts the function signature manually so one doesn't have to include a contract in here just for this.\n        //receiveApproval(address _from, uint256 _value, address _tokenContract, bytes _extraData)\n        //it is assumed that when does this that the call *should* succeed, otherwise one would use vanilla approve instead.\n        if(!_spender.call(bytes4(bytes32(sha3(\"receiveApproval(address,uint256,address,bytes)\"))), msg.sender, _value, this, _extraData)) { throw; }\n        return true;\n    }\n}",
  "sourcePath": "/root/contracts/lib/HumanStandardToken.sol",
  "compiler": {
    "name": "solc",
    "version": "0.4.25+commit.59dbf8f1.Emscripten.clang"
  },
  "schemaVersion": "3.0.2",
  "updatedAt": "2019-02-27T03:50:12.996Z",
  "devdoc": {
    "methods": {}
  },
  "userdoc": {
    "methods": {}
  }
}