{
  "contractName": "ECTools",
  "abi": [
    {
      "constant": true,
      "inputs": [
        {
          "name": "_hashedMsg",
          "type": "bytes32"
        },
        {
          "name": "_sig",
          "type": "string"
        }
      ],
      "name": "recoverSigner",
      "outputs": [
        {
          "name": "",
          "type": "address"
        }
      ],
      "payable": false,
      "stateMutability": "pure",
      "type": "function"
    },
    {
      "constant": true,
      "inputs": [
        {
          "name": "_hashedMsg",
          "type": "bytes32"
        },
        {
          "name": "_sig",
          "type": "string"
        },
        {
          "name": "_addr",
          "type": "address"
        }
      ],
      "name": "isSignedBy",
      "outputs": [
        {
          "name": "",
          "type": "bool"
        }
      ],
      "payable": false,
      "stateMutability": "pure",
      "type": "function"
    },
    {
      "constant": true,
      "inputs": [
        {
          "name": "_hexstr",
          "type": "string"
        }
      ],
      "name": "hexstrToBytes",
      "outputs": [
        {
          "name": "",
          "type": "bytes"
        }
      ],
      "payable": false,
      "stateMutability": "pure",
      "type": "function"
    },
    {
      "constant": true,
      "inputs": [
        {
          "name": "_char",
          "type": "string"
        }
      ],
      "name": "parseInt16Char",
      "outputs": [
        {
          "name": "",
          "type": "uint256"
        }
      ],
      "payable": false,
      "stateMutability": "pure",
      "type": "function"
    },
    {
      "constant": true,
      "inputs": [
        {
          "name": "_uint",
          "type": "uint256"
        }
      ],
      "name": "uintToBytes32",
      "outputs": [
        {
          "name": "b",
          "type": "bytes"
        }
      ],
      "payable": false,
      "stateMutability": "pure",
      "type": "function"
    },
    {
      "constant": true,
      "inputs": [
        {
          "name": "_msg",
          "type": "string"
        }
      ],
      "name": "toEthereumSignedMessage",
      "outputs": [
        {
          "name": "",
          "type": "bytes32"
        }
      ],
      "payable": false,
      "stateMutability": "pure",
      "type": "function"
    },
    {
      "constant": true,
      "inputs": [
        {
          "name": "_uint",
          "type": "uint256"
        }
      ],
      "name": "uintToString",
      "outputs": [
        {
          "name": "str",
          "type": "string"
        }
      ],
      "payable": false,
      "stateMutability": "pure",
      "type": "function"
    },
    {
      "constant": true,
      "inputs": [
        {
          "name": "_str",
          "type": "string"
        },
        {
          "name": "_startIndex",
          "type": "uint256"
        },
        {
          "name": "_endIndex",
          "type": "uint256"
        }
      ],
      "name": "substring",
      "outputs": [
        {
          "name": "",
          "type": "string"
        }
      ],
      "payable": false,
      "stateMutability": "pure",
      "type": "function"
    }
  ],
  "bytecode": "0x610bc7610030600b82828239805160001a6073146000811461002057610022565bfe5b5030600052607381538281f300730000000000000000000000000000000000000000301460806040526004361061008b5763ffffffff60e060020a6000350416631052506f81146100905780631445f713146101005780631dcd9b55146101c157806338b025b214610216578063886d3db914610274578063dae214541461027f578063dca95419146102cb578063e939567914610338575b600080fd5b60408051602060046024803582810135601f81018590048502860185019096528585526100ec95833595369560449491939091019190819084018382808284375094975050509235600160a060020a0316935061034392505050565b604080519115158252519081900360200190f35b6040805160206004803580820135601f810184900484028501840190955284845261014c9436949293602493928401919081908401838280828437509497506103819650505050505050565b6040805160208082528351818301528351919283929083019185019080838360005b8381101561018657818101518382015260200161016e565b50505050905090810190601f1680156101b35780820380516001836020036101000a031916815260200191505b509250505060405180910390f35b6040805160206004803580820135601f810184900484028501840190955284845261014c9436949293602493928401919081908401838280828437509497505084359550505060209092013591506104889050565b6040805160206004803580820135601f81018490048402850184019095528484526102629436949293602493928401919081908401838280828437509497506105519650505050505050565b60408051918252519081900360200190f35b61014c600435610718565b6040805160206004803580820135601f81018490048402850184019095528484526102629436949293602493928401919081908401838280828437509497506107439650505050505050565b60408051602060046024803582810135601f810185900485028601850190965285855261031c9583359536956044949193909101919081908401838280828437509497506108f19650505050505050565b60408051600160a060020a039092168252519081900360200190f35b61014c600435610aed565b6000600160a060020a038216151561035a57600080fd5b61036484846108f1565b600160a060020a031682600160a060020a03161490509392505050565b805160609081600081808280600287061561039b57600080fd5b600287046040519080825280601f01601f1916602001820160405280156103cc578160200160208202803883390190505b50955060009450600091505b8682101561047b576103ee898384600101610488565b9350610401898360010184600201610488565b925061040c83610551565b61041585610551565b60100201905061042481610718565b8051601f90811061043157fe5b90602001015160f860020a900460f860020a02868680600101975081518110151561045857fe5b906020010190600160f860020a031916908160001a9053506002820191506103d8565b5093979650505050505050565b6060838160008486111561049b57600080fd5b60008610156104a957600080fd5b82518511156104b757600080fd5b8585036040519080825280601f01601f1916602001820160405280156104e7578160200160208202803883390190505b5091508590505b8481101561054757828181518110151561050457fe5b90602001015160f860020a900460f860020a028287830381518110151561052757fe5b906020010190600160f860020a031916908160001a9053506001016104ee565b5095945050505050565b8051600090829060fc60020a6003029082908490811061056d57fe5b90602001015160f860020a900460f860020a02600160f860020a031916101580156105cb5750805160f860020a60390290829060009081106105ab57fe5b90602001015160f860020a900460f860020a02600160f860020a03191611155b156105fa5760308160008151811015156105e157fe5b016020015160f860020a90819004810204039150610712565b805160f860020a604102908290600090811061061257fe5b90602001015160f860020a900460f860020a02600160f860020a031916101580156106705750805160f960020a602302908290600090811061065057fe5b90602001015160f860020a900460f860020a02600160f860020a03191611155b156106865760378160008151811015156105e157fe5b805160f860020a606102908290600090811061069e57fe5b90602001015160f860020a900460f860020a02600160f860020a031916101580156106fc5750805160f960020a60330290829060009081106106dc57fe5b90602001015160f860020a900460f860020a02600160f860020a03191611155b1561008b5760578160008151811015156105e157fe5b50919050565b6040805160208082528183019092526060918082016104008038833950505060208101929092525090565b8051600090606082821161075657600080fd5b5060408051808201909152601a81527f19457468657265756d205369676e6564204d6573736167653a0a00000000000060208201528061079583610aed565b856040516020018084805190602001908083835b602083106107c85780518252601f1990920191602091820191016107a9565b51815160209384036101000a600019018019909216911617905286519190930192860191508083835b602083106108105780518252601f1990920191602091820191016107f1565b51815160209384036101000a600019018019909216911617905285519190930192850191508083835b602083106108585780518252601f199092019160209182019101610839565b6001836020036101000a03801982511681845116808217855250505050505090500193505050506040516020818303038152906040526040518082805190602001908083835b602083106108bd5780518252601f19909201916020918201910161089e565b5181516020939093036101000a60001901801990911692169190911790526040519201829003909120979650505050505050565b60006060818080808488151561090657600080fd5b6040805190810160405280601c81526020017f19457468657265756d205369676e6564204d6573736167653a0a333200000000815250955085896040516020018083805190602001908083835b602083106109725780518252601f199092019160209182019101610953565b51815160209384036101000a600019018019909216911617905292019384525060408051808503815293820190819052835193945092839250908401908083835b602083106109d25780518252601f1990920191602091820191016109b3565b6001836020036101000a0380198251168184511680821785525050505050509050019150506040518091039020945087516084141515610a155760009650610ae1565b610a2a610a258960026084610488565b610381565b90506020810151935060408101519250606081015160001a9150601b8260ff161015610a5757601b820191505b601b8260ff161080610a6c5750601c8260ff16115b15610a7a5760009650610ae1565b604080516000808252602080830180855289905260ff8616838501526060830188905260808301879052925160019360a0808501949193601f19840193928390039091019190865af1158015610ad4573d6000803e3d6000fd5b5050506020604051035196505b50505050505092915050565b60606000828282805b8315610b0d57600190940193600a84049350610af6565b846040519080825280601f01601f191660200182016040528015610b3b578160200160208202803883390190505b5092506001850391505b8615610b9057508151600a808804976000198401939190069160f860020a60308401029185918110610b7357fe5b906020010190600160f860020a031916908160001a905350610b45565b5090959450505050505600a165627a7a723058206742cfb7c8817e5c72e0af51d76d08a05489c56c6560be6bef5bde036467ed6d0029",
  "source": "pragma solidity ^0.4.25;\n\nlibrary ECTools {\n\n    // @dev Recovers the address which has signed a message\n    // @thanks https://gist.github.com/axic/5b33912c6f61ae6fd96d6c4a47afde6d\n    function recoverSigner(bytes32 _hashedMsg, string _sig) public pure returns (address) {\n        require(_hashedMsg != 0x00);\n\n        // need this for test RPC\n        bytes memory prefix = \"\\x19Ethereum Signed Message:\\n32\";\n        bytes32 prefixedHash = keccak256(abi.encodePacked(prefix, _hashedMsg));\n\n        if (bytes(_sig).length != 132) {\n            return 0x0;\n        }\n        bytes32 r;\n        bytes32 s;\n        uint8 v;\n        bytes memory sig = hexstrToBytes(substring(_sig, 2, 132));\n        assembly {\n            r := mload(add(sig, 32))\n            s := mload(add(sig, 64))\n            v := byte(0, mload(add(sig, 96)))\n        }\n        if (v < 27) {\n            v += 27;\n        }\n        if (v < 27 || v > 28) {\n            return 0x0;\n        }\n        return ecrecover(prefixedHash, v, r, s);\n    }\n\n    // @dev Verifies if the message is signed by an address\n    function isSignedBy(bytes32 _hashedMsg, string _sig, address _addr) public pure returns (bool) {\n        require(_addr != 0x0);\n\n        return _addr == recoverSigner(_hashedMsg, _sig);\n    }\n\n    // @dev Converts an hexstring to bytes\n    function hexstrToBytes(string _hexstr) public pure returns (bytes) {\n        uint len = bytes(_hexstr).length;\n        require(len % 2 == 0);\n\n        bytes memory bstr = bytes(new string(len / 2));\n        uint k = 0;\n        string memory s;\n        string memory r;\n        for (uint i = 0; i < len; i += 2) {\n            s = substring(_hexstr, i, i + 1);\n            r = substring(_hexstr, i + 1, i + 2);\n            uint p = parseInt16Char(s) * 16 + parseInt16Char(r);\n            bstr[k++] = uintToBytes32(p)[31];\n        }\n        return bstr;\n    }\n\n    // @dev Parses a hexchar, like 'a', and returns its hex value, in this case 10\n    function parseInt16Char(string _char) public pure returns (uint) {\n        bytes memory bresult = bytes(_char);\n        // bool decimals = false;\n        if ((bresult[0] >= 48) && (bresult[0] <= 57)) {\n            return uint(bresult[0]) - 48;\n        } else if ((bresult[0] >= 65) && (bresult[0] <= 70)) {\n            return uint(bresult[0]) - 55;\n        } else if ((bresult[0] >= 97) && (bresult[0] <= 102)) {\n            return uint(bresult[0]) - 87;\n        } else {\n            revert();\n        }\n    }\n\n    // @dev Converts a uint to a bytes32\n    // @thanks https://ethereum.stackexchange.com/questions/4170/how-to-convert-a-uint-to-bytes-in-solidity\n    function uintToBytes32(uint _uint) public pure returns (bytes b) {\n        b = new bytes(32);\n        assembly {mstore(add(b, 32), _uint)}\n    }\n\n    // @dev Hashes the signed message\n    // @ref https://github.com/ethereum/go-ethereum/issues/3731#issuecomment-293866868\n    function toEthereumSignedMessage(string _msg) public pure returns (bytes32) {\n        uint len = bytes(_msg).length;\n        require(len > 0);\n        bytes memory prefix = \"\\x19Ethereum Signed Message:\\n\";\n        return keccak256(abi.encodePacked(prefix, uintToString(len), _msg));\n    }\n\n    // @dev Converts a uint in a string\n    function uintToString(uint _uint) public pure returns (string str) {\n        uint len = 0;\n        uint m = _uint + 0;\n        while (m != 0) {\n            len++;\n            m /= 10;\n        }\n        bytes memory b = new bytes(len);\n        uint i = len - 1;\n        while (_uint != 0) {\n            uint remainder = _uint % 10;\n            _uint = _uint / 10;\n            b[i--] = byte(48 + remainder);\n        }\n        str = string(b);\n    }\n\n\n    // @dev extract a substring\n    // @thanks https://ethereum.stackexchange.com/questions/31457/substring-in-solidity\n    function substring(string _str, uint _startIndex, uint _endIndex) public pure returns (string) {\n        bytes memory strBytes = bytes(_str);\n        require(_startIndex <= _endIndex);\n        require(_startIndex >= 0);\n        require(_endIndex <= strBytes.length);\n\n        bytes memory result = new bytes(_endIndex - _startIndex);\n        for (uint i = _startIndex; i < _endIndex; i++) {\n            result[i - _startIndex] = strBytes[i];\n        }\n        return string(result);\n    }\n}",
  "sourcePath": "/root/contracts/lib/ECTools.sol",
  "compiler": {
    "name": "solc",
    "version": "0.4.25+commit.59dbf8f1.Emscripten.clang"
  },
  "schemaVersion": "3.0.0-beta.1",
  "updatedAt": "2018-12-14T18:29:17.292Z"
}